:020000040800F2
:1000000000000320298200089F290008A129000878
:10001000A3290008A5290008A7290008000000005E
:10002000000000000000000000000000317A00081D
:10003000A929000800000000C17A0008D97300084F
:1000400079820008798200087982000879820008A4
:100050007982000879820008AB29000879820008BB
:100060007982000879820008798200087982000884
:100070007982000879820008798200087982000874
:100080007982000879820008798200087982000864
:100090007982000879820008798200087982000854
:1000A0007982000879820008798200087982000844
:1000B0007982000879820008798200087982000834
:1000C0007982000879820008798200087982000824
:1000D00079820008B1290008798200087982000835
:1000E0007982000879820008798200087982000804
:1000F00079820008798200087982000879820008F4
:1001000079820008798200087982000879820008E3
:100110007982000879820008BD29000879820008E8
:1001200079820008798200087982000879820008C3
:1001300079820008798200087982000879820008B3
:1001400079820008798200087982000879820008A3
:100150007982000879820008798200087982000893
:100160007982000879820008798200087982000883
:100170007982000879820008798200080000000076
:100180007982000879820008798200087982000863
:100190007982000879820008798200087982000853
:0C01A000C929000879820008D529000850
:1001B00010B5054C237833B9044B13B10448AFF3A1
:1001C00000800123237010BD90010020000000007A
:1001D0005CB1010808B5034B1BB103490348AFF3F9
:1001E000008008BD00000000940100205CB10108FF
:1001F00053B94AB9002908BF00281CBF4FF0FF318E
:100200004FF0FF3000F072B9ADF1080C6DE904CE8B
:1002100000F006F8DDF804E0DDE9022304B07047E1
:100220002DE9F047089E04468846002B4BD18A42B0
:10023000154667D9B2FA82F24AB1C2F1200701FA33
:1002400002F320FA07F7954047EA030894404FEA83
:10025000154E230CB8FBFEF71FFA85FC0EFB178822
:1002600043EA084307FB0CF1994209D9EB1807F15F
:10027000FF3080F01B81994240F21881023F2B44ED
:100280005B1AA4B2B3FBFEF00EFB103344EA034446
:1002900000FB0CFCA44509D92C1900F1FF3380F0B8
:1002A0000781A44540F2048102382C4440EA07400B
:1002B000A4EB0C0400271EB1D4400023C6E9004380
:1002C0003946BDE8F0878B4209D9002E00F0EB805B
:1002D0000027C6E9000138463946BDE8F087B3FA81
:1002E00083F7002F47D18B4202D3824200F2FA807B
:1002F000841A61EB030301209846002EE0D0C6E982
:100300000048DDE702B9FFDEB2FA82F2002A40F0CF
:100310008F80491B4FEA154E1FFA85F80127B1FB64
:10032000FEFC230C0EFB1C1143EA014308FB0CF1FD
:10033000994207D9EB180CF1FF3002D2994200F232
:10034000CD808446591AA3B2B1FBFEF00EFB101407
:1003500043EA044408FB00F8A04507D92C1900F132
:10036000FF3302D2A04500F2B6801846A4EB080481
:1003700040EA0C409FE7C7F1200CBB4022FA0CFE7C
:100380004EEA030E01FA07F420FA0CF521FA0CF3F9
:100390004FEA1E482543B3FBF8F92C0C08FB193330
:1003A0001FFA8EFA44EA034309FB0AF49C4202FA5C
:1003B00007F200FA07F10BD91EEB030309F1FF3036
:1003C00080F087809C4240F28480A9F10209734446
:1003D0001B1BADB2B3FBF8F008FB103345EA034436
:1003E00000FB0AFAA24508D91EEB040400F1FF3312
:1003F0006BD2A24569D90238744440EA0940A0FB97
:100400000289A4EB0A044C45C2464B4654D351D052
:10041000002E69D0B1EB0A0564EB030404FA0CFC6E
:10042000FD40FC404CEA0505C6E90054002747E7BB
:10043000C2F1200320FA03F7954001FA02F021FAF5
:1004400003F34FEA154E3843010CB3FBFEF71FFAD6
:1004500085F80EFB173341EA034107FB08F38B4293
:1004600004FA02F407D9691807F1FF3C2FD28B4236
:100470002DD9023F2944CB1A81B2B3FBFEF00EFB0B
:10048000103341EA034100FB08F38B4207D9691896
:1004900000F1FF3C17D28B4215D902382944C91A02
:1004A00040EA07473BE73746304609E70746E7E6B5
:1004B0001846FBE64145ABD2B8EB020A69EB0E02E7
:1004C00001381346A4E76046E9E7184695E7674612
:1004D000D1E781467CE702382C4447E7ACF1020CB7
:1004E0002B442FE7384608E73746E9E6704700BF58
:1004F00001F0FF01102A2BDB10F0070F08D010F8D5
:10050000013B013A8B422DD010F0070F42B3F6D1D8
:10051000F0B441EA012141EA014122F007047FF0F1
:1005200000070023F0E80256083C85EA010586EA48
:10053000010685FA47F5A3FA87F586FA47F6A5FA84
:1005400087F68EB9EED1F0BC01F0FF0102F0070290
:1005500032B110F8013B013A83EA010313B1F8D13B
:100560000020704701387047002D06BF354603381C
:10057000073815F0010F07D1013015F4807F02BF55
:10058000013015F4C03F0130F0BC0138704700BFA6
:100590007047043870477047C06803681B6B184782
:1005A000A0F10400FFF7F8BF10B51021044619F0C0
:1005B00035FE204610BDA0F10400F5E710B500227D
:1005C0008260044AC16002F108042432046042607F
:1005D00010BD00BFB4B10108704770477047704745
:1005E00010B5034B0360044600F052F9204610BDDD
:1005F00028B2010810B50446FFF7F2FF20464FF479
:100600003B7119F00BFE204610BD000010B50446EA
:1006100000F034FA014B2360204610BD28B20108D7
:1006200000F037B970B588B004460E46204A102154
:1006300068460DF005FF1F490B7883B304F2562579
:10064000112204F50D700DF094FB1122314628465D
:100650000DF08FFB2946102268460DF0FEFE04F5D2
:100660001E75F0B9144A322128460DF0E9FE012327
:100670004FF0FF3284F821320023C4F82432C4F84A
:100680002822C4F82C3204F592700BF0C1FF04F557
:10069000CE700BF0BDFF04F5F4700BF0B9FF08B09D
:1006A00070BD6B46054A322128460DF0C9FEDEE7D3
:1006B000E4B10108F0250120EAB1010801B2010806
:1006C00038B5112504462A46002100F50D7019F0B1
:1006D0002CFE04F592700BF09BFF2A4604F2562084
:1006E000002119F022FE04F5CE70BDE838400BF071
:1006F0008FBF00220260704710B5094B044618688E
:1007000060B100231A46074907F004F830B92068A1
:1007100004490368BDE810409B68184710BD00BF3E
:10072000F0240120AC010020704700F598730868A0
:10073000496803C37047704700F09EBB10B54FF483
:10074000AE71044619F06AFD204610BD10B504468E
:10075000D0F85801FFF7D0FF2046BDE810400AF05E
:1007600095BF10B50446D0F8400158B10368DB6866
:10077000984738B1D4F8400103689B689847002334
:10078000C4F8403110BD000010B5044600F03CFB39
:10079000014B2360204610BD64B2010890F825206B
:1007A00012B103685B691847704700207047818069
:1007B0007047C18070470181704741817047704721
:1007C0007047704770477047C38810B4D21A838847
:1007D0005DF8044BC91A036812B25B6D09B2184781
:1007E0004FF6FF7383814FF0FF3303621368C361D9
:1007F000106070477047704790F825201AB190F844
:10080000242002B118607047704730B585B0036886
:1008100001816D4601460446D3F884302846984746
:1008200095E807003C3484E8070005B030BD30B5DA
:1008300085B0036841816D4601460446D3F8843093
:100840002846984795E807003C3484E8070005B03F
:1008500030BD0022028042808280C280704780F8D2
:100860003610704770B5036804461B6B15469847F1
:100870002368294620465B6EBDE87040184700207B
:10088000704708B5FFF78AFF08BD806C7047704756
:10089000704770477047704730B4C56844686A1045
:1008A0000346ED0704EB02009B6848BFA25830BC2A
:1008B00048BFD358184743682BB183682BB9C06829
:1008C00000F001007047184670470120704710B5CE
:1008D0000821044619F0A2FC204610BD10B54C2199
:1008E000044619F09BFC204610BD10B510210446AB
:1008F00019F094FC204610BD10B54FF43B7104462E
:1009000019F08CFC204610BD70B503685E6B124B6D
:100910001B6804468DB22BB9104B114A6C2111484B
:1009200019F088FC1049828D0988914203D80F4B39
:100930000B4A6D21F3E713F812200D4B1B6853F897
:10094000220003681B6B9847291A3346204609B2D8
:10095000BDE87040184700BF4423012060B3010880
:100960005CB40108A2B3010848230120E3B30108E5
:100970004C23012000F1C4028A4202D10368DB6AE1
:100980001847704700224FF0FF31C0E90021826014
:10099000704700000A4A026000228280C280028101
:1009A00042818281C28102824282C0E90522C26103
:1009B0000284428480F82420012280F82520704798
:1009C0009CC3010870B5036804461B6B1546984725
:1009D0002368294620465B6BBDE87040184770B518
:1009E00004461E46BDF91050FFF7ECFF2368314660
:1009F00020469A6B9047236829462046DB6BBDE86A
:100A00007040184710B526220446002119F08DFCCD
:100A10002046FFF7BFFF044B2360FF2384F82630F6
:100A20000023A362204610BD08C2010810B526228B
:100A30000446002119F079FC2046FFF7ABFF4FF682
:100A4000FF720C4BA362A28500234FF47F01A4F830
:100A50004020A4F84220084A84F83830C4E90C3118
:100A600084F83930A387E38763642260A364204657
:100A700010BD00BFB0B20108C0B201082DE9F04FAF
:100A8000044691B0A14600250CF06AF8B64BE56328
:100A900049F8403B4846FFF7B5FF04F16C0304F109
:100AA000980718464FF0260B4FF6FF760593FFF791
:100AB000A9FF5A46294638460DF1400AADF838607C
:100AC00019F033FC3846FFF765FFA84BC4F898309F
:100AD0003AF8083DA4F8BE3004F1C40884F8C060B8
:100AE0005146384609F023F85A462946404619F03F
:100AF0001CFC4046FFF74EFF4FF0010384F8E8303E
:100B00009B4BC4F8C43004F1F803A4F8F260A4F8D5
:100B1000F46084F8F660C4F8EC5084F8F05018469D
:100B20000693FFF76FFF04F5927318460393FFF7E0
:100B30007DFF04F5B87318460793FFF763FF04F5CC
:100B4000CE7304F5F47B18460493FFF76FFF584605
:100B5000FFF76CFF874BC4F8DC32874BC4F8E432F4
:100B6000F0232A46009329464846C4F8E042C4F8D8
:100B7000E8524FF4A073261DFFF731FF4FF07F437B
:100B8000A3664946304607F0B1FB4FF4A0734FF01F
:100B9000FF392A4600932946F0230598FFF71FFFE7
:100BA0000599C4F89490304607F0A0FB2A462946E0
:100BB0003846FFF707FF4FF0020351463846ADF8BD
:100BC000383008F0B4FF3946304607F08FFB404616
:100BD000BA224921FFF7F6FE4FF00102ADF83820A6
:100BE0000DA952464046ADF8345008F067FE04F5B2
:100BF0003773C4F8EC304146304607F077FB3221BA
:100C000000914FF4A073052229460698DFF86C8105
:100C1000FFF7E5FE4FF0640184F81E113046069997
:100C2000C4F8209107F062FB1B2000900E2203986D
:100C30004FF496730A21FFF7D2FED4F82431C4F89A
:100C4000549108AFA4F858510399D3F8843038462A
:100C5000984797E8070004F5B07383E8070004F5A8
:100C60000D73C4F86C3151464FF002030398A4F899
:100C70003452ADF83C30CDF8388008F0C1FD03990E
:100C8000304607F033FB322300933C224FF4A0732D
:100C900029460798FFF7A3FE4FF0640184F89611E8
:100CA00030460799C4F8989107F020FB1B23009366
:100CB000452204984FF496730A21FFF790FED4F86A
:100CC0009C31C4F8CC91A4F8D0510499D3F8843065
:100CD0003846984797E8070004F5EC7383E8070067
:100CE00004F25623C4F8E4314FF00102514604984F
:100CF000A4F85652ADF83C20CDF8388008F080FDBD
:100D00000499304607F0F2FA4023009378225846BF
:100D10004FF496730A21FFF762FED4F8E831C4F865
:100D20001892A4F81C5259463846D3F88430984794
:100D300097E8070004F5097383E8070004F51E73BC
:100D4000C4F8303251465846A4F87852CDF838806D
:100D5000ADF83C5008F054FD3046594607F0C6FA4D
:100D6000204611B0BDE8F08F2CB40108E4C20108A0
:100D700070C2010850B3010875090008B0B201083B
:100D80007047704770474160704770470123037296
:100D900070477047704710B4C468416862100346DA
:100DA000E40701EB02009B6848BF8A585DF8044BDA
:100DB00048BFD358184743682BB183682BB9C06824
:100DC00000F001007047184670470120704710B5C9
:100DD0000C21044619F022FA204610BD10B54FF43C
:100DE000AE71044619F01AFA204610BD10B5102154
:100DF000044619F013FA204610BD08B50AF0C4FBEA
:100E0000BDE808400BF008B8F8B5044617460E4692
:100E10000AF07CFC144BC4F858611C60134E144B50
:100E2000236000253068134BC4F83C51C4F840518E
:100E3000C4F84431C4F84851C4F84C51C4F8505176
:100E4000C4F85471036829469B689847284600F007
:100E5000BFFA336893F876200AB1D86C00B9986865
:100E600012F09DFA2046F8BD40230120F422012013
:100E7000B8B40108A0B40108064BC0F84C310023F7
:100E8000C0F8503100F5A273C0F84801C0F84031F5
:100E9000704700BFD90F00082DE9F047074690685A
:100EA000DDF820A0994603681B6A884615469847D6
:100EB000B0F53B7F05D2424B424AA321424819F08C
:100EC000B9F9686803681B6A98470F2803D83F4B35
:100ED0003C4AA421F2E7E86803681B6A98470B289C
:100EE00003D83B4B374AA521E8E70AF04DFB043015
:100EF0000AF06FFBD9F8000010B10368DB6898476F
:100F0000D9F8000010B103681B689847386810B121
:100F100003685B699847D8F8000010B103685B6804
:100F20009847386810B103681B689847D8F80000E4
:100F300010B103689B689847E868036800215B6A02
:100F40009847044620B1002343600372214B03609D
:100F5000A868036800215B6A9847064608B1FFF756
:100F600055FB6868036800215B6A9847054610B125
:100F70003146FFF723FBC9F80040C8F800503E6037
:100F8000E5B12B1DCAF80030C5F808A03368F56339
:100F90003046DB6898472B6828461B6898472146EF
:100FA00030460BF089FF236820461B699847236869
:100FB00020465B6998472846BDE8F0872B46E1E765
:100FC00020B5010835B70108AEB50108EFB5010835
:100FD00092B6010804B5010807B5D0F8583100935E
:100FE000D0F85421044B00F59E710448FFF754FFDC
:100FF00003B05DF804FB00BF34230120302301203F
:1010000013B5002249B102AB019203F8052D026825
:10101000946801AAA04702B010BD0846FBE7C0894A
:101020007047008A7047C088704780887047807A10
:1010300000F07F007047807AC0097047406A7047AF
:10104000806A704770478B88C0690A68DB0A50F86D
:1010500023001044704710B5C2B1137BB3B1547B69
:10106000D27A240204F4E0641443026A98B202EBD8
:10107000840213888B4202D192F9020010BD05D878
:10108000013880B204320028F3D1F7E70020F5E7F9
:1010900010B52C21044619F0C1F8204610BD0000FF
:1010A00030B58BB00446BDF860500895BDF85C5073
:1010B00007959DF8505006959DF84C5005959DF864
:1010C000485004959DF8445003959DF84050029572
:1010D0009DF83C500195BDF8385000950BF046FB4B
:1010E000064B2360159BE361169B2362199B636289
:1010F0001A9BA36220460BB030BD00BF44B8010864
:1011000030B5184D2C78BFF35B8F14F001048FB00D
:1011100024D1284619F059F800B33F230993124B04
:101120000893124B07930123CDE90533049304235D
:10113000CDE9024316235F220D490093CDE90B440C
:101140001A230A9401940B48FFF7AAFF284619F0C6
:1011500048F8094A0949074819F05BF805480FB0F3
:1011600030BD00BFBC010020DCEE0108CCEE010860
:1011700040C90108C00100200000002045100008FF
:1011800030B5174D2C78BFF35B8F14F001048FB08E
:1011900022D1284619F019F8F0B13F230993114BD9
:1011A0000893114B11490A940122CDE90643042307
:1011B000CDE903320A230093CDE90B440594CDE930
:1011C00001440B48FFF76CFF284619F00AF8094A5A
:1011D0000949074819F01DF805480FB030BD00BF98
:1011E000EC010020D8EE0108D4EE010894EE0108CD
:1011F000F0010020000000204510000830B5174D18
:101200002C78BFF35B8F14F001048FB022D12846F5
:1012100018F0DBFFF0B13F230993114B0893114BFA
:1012200011490A940122CDE906430423CDE9033292
:1012300028230093CDE90B440594CDE901440B48E4
:10124000FFF72EFF284618F0CCFF094A0949074846
:1012500018F0DFFF05480FB030BD00BF1C020020B2
:10126000D0EE0108D4F00108BCEE010820020020F5
:101270000000002045100008704710B50421044606
:1012800018F0CCFF204610BD012908B508D003D3C3
:10129000022909D0002002E000F012F8006808BD21
:1012A00000F00EF84068FAE700F00AF88068F6E708
:1012B00000487047B0B8010803207047032070470A
:1012C000004870474C02002010B5FFF719FF044C8E
:1012D0002060FFF793FF6060FFF752FFA06010BD32
:1012E0004C02002000207047002070470EB403B568
:1012F00003AB002153F8042B01930BF05FF802B00D
:101300005DF804EB03B070470CB407B504AB53F8B9
:10131000042B01930BF052F803B05DF804EB02B01C
:101320007047000010B5436C044673B3038F2BB9AC
:10133000184B194AC521194818F07CFFC38E00EBE1
:1013400043035B8C0BB30CF0CCFA238F012B03D837
:10135000134B144ACB21EEE7E28E531C9BB2092BB0
:10136000194688BFA3F10A0104EB410140F63F1082
:10137000498C814209D10A2B04EB420228BF002389
:1013800004EB4303508C588451842046BDE8104040
:101390000CF0AAB9ECB8010819BA0108F5B80108AF
:1013A00039B9010847B901080CF065B910B586B024
:1013B00002AC84E806001A460AAB05930193099B28
:1013C00000932146089B09F09DFC06B010BD00006B
:1013D00038B5D8B9114B12481B681249BBB11A680D
:1013E0009C681A4402605A681A440A601C446CB132
:1013F0000D4B00221A80FFF763FF0546FFF75EFFE3
:101400000A4B1C600A4B1D600A4B188038BD0A4B02
:1014100003600A4B0B600A4B1C68E8E75802002087
:101420005C020020600200206402002044230120AE
:101430004C23012048230120605A0508485A05081A
:101440005C5A0508044B1B6853F82100034B1B68CA
:1014500003EB4000704700BF600200205C020020E8
:10146000012380F8741080F87530704700207047B1
:101470004164034B003118BF01211970704700BF50
:10148000F122012000207047836B0BB108461847FA
:1014900070474FF6FF707047406803689B691847B4
:1014A00070477047034B902283F85A2383F85823E0
:1014B000704700BF00E100E0094A0A49D3680A48C2
:1014C000C3F30A03013B9BB20B801169C1F30A010C
:1014D000013901801364536B43F001035363704778
:1014E000006801406A02002068020020014B986AEF
:1014F000704700BF84680140024B0122996243F8A3
:10150000602C70478468014010B531B90A4B0B4A12
:101510000B4840F2D22118F08DFEC0E90F120032C4
:10152000084918BF01220A7002681946D2F88C20B7
:10153000BDE81040104700BF27BB0108E1BB010810
:101540005FBB0108F022012008B5094B1B888B42C4
:1015500003D8084B1B88934205D9074B074A084814
:101560009E2118F067FE074B1980074B1A8008BDB3
:10157000E6220120E8220120C4BA01089EBB01082E
:101580005FBB0108EC220120EE22012070B5044669
:1015900007F097F923685D6E09F0F6FF01462046D3
:1015A000A8472368054AD3F888502046AC46002354
:1015B000A2F51631BDE87040604700BF005802D068
:1015C00007F066B990F84B3013B1024B01221A7044
:1015D00007F06AB96602002007F024B907F07FBA65
:1015E00010B5044607F0B2FE23682046D3F8AC30AD
:1015F000BDE81040184790F877301BB14068036889
:101600001B6818471846704710B590F8744090F85A
:1016100034100C4B8C421A7809D03AB90A4A0B495B
:101620001488088810800C8001221A7010BD002ACE
:10163000FCD0054A05491488088810800C800022D7
:10164000F3E700BFEA220120E6220120E822012080
:10165000034B4FF080629A604FF080729A6070473F
:1016600000E100E0084B4FF08062C3F88820BFF330
:101670004F8FBFF36F8F4FF08072C3F88820BFF396
:101680004F8FBFF36F8F704700E100E010B5144C2F
:10169000236823B3134B144A1B6C11888B4213D15C
:1016A000124B198804F07AF8226892F866300133F8
:1016B00082F8663000F004FA206807F047FE002048
:1016C000BDE8104000F018BC04F068F8206803681A
:1016D0001B6A98470020BDE8104000F037BC10BDE1
:1016E000F4220120006801406A0200206802002004
:1016F00003685B6C18470120704703689B6A1847B2
:1017000082B0002301930D4B1A6B42F400021A635E
:101710001A6B02F400020192019A1A6942F4000263
:101720001A611A6922F400021A61054B054A1A610E
:10173000054B4FF080629A6002B07047003802405B
:10174000042601205517000800E100E040F2EF30C8
:1017500070470000024B1B68586803685B691847B4
:10176000F422012008B50B280BD8DFE800F01206A0
:10177000100A0A0A0A0808080808012008BD0520FE
:10178000FCE7054B054A0648662118F053FD00208A
:10179000F4E70220F2E700BF49BC01081ABD0108C6
:1017A00064BC010808B50A2809D8DFE800F0100673
:1017B0000E080808080606060600012008BD054BAD
:1017C000054A0648872118F035FD0020F6E702207B
:1017D000F4E700BF49BC010864BD010864BC01080E
:1017E000F8B50C46487FFFF7BDFFA77F0546384692
:1017F000FFF7B8FF06463846FFF7D4FFA38A628B8F
:10180000D21A494B1A64A18A628B521A9A61A18A30
:10181000228B521A1A615863A18AE28A42EA014273
:101820005A642269DA636268DA602268402A70D0FA
:1018300010D8042A3BD0202A6BD0237F45EA0365C9
:10184000394B45F40035DD61617FA27F914267D05D
:10185000364A4BE0B2F5807F1BD0B2F5007F23D033
:10186000802AEAD1A068021DDA62227F45EA026579
:1018700045F40035DD615E6222695A610278EAB1A1
:10188000012A35D02A4B2B4A2B4840F2111118F06F
:10189000D1FC217F294A42EA0162DA61E2681A62D8
:1018A0005E6222695A6120E0217F254AF3E7227FA8
:1018B00045EA026545F40035DD61F1E7D969428802
:1018C000501E21F47F4222F0100242EA0022DA6127
:1018D0000121154BDA6942F02002DA61DA699206D9
:1018E000FCD410229A600029B2D0164A1A60F8BDC2
:1018F000DA694088217F22F47F4222F01002013809
:1019000042F01002FF3942EA002218BF0121DA61D9
:10191000DFE7237F45EA036545F40035024BCBE75B
:1019200040F20122E2E700BF00B0024001020100E4
:101930002FBC0108DCBC010864BC01080A000200DD
:10194000090002000102020010B5887F0C46FFF773
:1019500029FF1C4B5863A18AE28A42EA01425A6479
:101960002269DA63628BA18A521A1A642268082AF1
:1019700016D1A18A628B521A9A61A18A628B521A7D
:101980001A615862217F104A42EA0162DA61E26814
:101990001A6222695A612269DA600C4A1A6010BD23
:1019A0000022D8611A61E1680A0A480902F4784203
:1019B00000F4FC600243C1F3C4010A439A63044A81
:1019C000ECE700BF00B00240090001000102020084
:1019D00001020300054B0360054B4FF08062C3F822
:1019E0008820BFF34F8FBFF36F8F704794BC0108FF
:1019F00000E100E010B50446FFF7ECFF20464FF48D
:101A00005A6118F00BFC204610BD000070B5054669
:101A10002C460A4B0C30002668602E726E7244F819
:101A2000203B6022214607F0CFFD05F55A63E660B2
:101A30002434A342FBD1284670BD00BF94BC0108EA
:101A4000012108B50022084605F055FD0A4B186033
:101A500028B90A4B0A4A28210A4818F0EBFB002251
:101A60000421012005F0E8FD074B186018B9074B69
:101A7000034A2C21F0E708BD70020020AFBD010829
:101A800063BE0108F8BD01086C02002021BE0108F8
:101A9000024B4FF0FF31186805F078BD700200204E
:101AA000014B186805F09EBD70020020024B00211A
:101AB000186805F06BBD00BF70020020FFF7F0BF93
:101AC00003480449006800231A4605F0F1BD00BF31
:101AD0006C0200200400002013B5084C00231A46B5
:101AE00001A9206805F016FE4FF0FF33002201A97E
:101AF000206805F00FFE02B010BD00BF6C02002090
:101B0000704770477047012070470C2070470C23C6
:101B100003FB0100083070470C2303FB0100083071
:101B20007047012070474FF43B7070474FF43B7390
:101B300003FB0100083070474FF43B7303FB0100C7
:101B400008307047012070471020704700EB0110EB
:101B50000830704700EB0110083070470846FFF767
:101B60008BB9000010B5034B0360044606F0A8FBD8
:101B7000204610BD04BF010810B50446FFF7F2FF70
:101B80002046142118F04AFB204610BD10B5034B27
:101B90000360044606F094FB204610BDD0BE010849
:101BA00010B50446FFF7F2FF20464FF43D7118F0E0
:101BB00035FB204610BD000010B5034B0360044602
:101BC00006F07EFB204610BD9CBE010810B5044601
:101BD000FFF7F2FF2046182118F020FB204610BD29
:101BE00010B5084B0360044600F54870FFF7BAFFD4
:101BF00004F12C00FFF7CAFF04F11400FFF7DCFF2B
:101C0000204610BD38BF010810B50446FFF7E8FFB5
:101C1000204640F2944118F001FB204610BD000020
:101C20002DE9F341FFF744FB0546FFF745FB002490
:101C3000014623462846224600940CF0C9FC274B57
:101C4000274A284D1A602046FFF7C2FB26480CF0B1
:101C500027FC2B78BFF35B8FDB0738D4284618F0BE
:101C6000B4FA002833D0214C214B236004F54E7682
:101C700004F1140004F12C0804F548776060C4F8FE
:101C80000880E760266106F01DFB1A4B6361404641
:101C900006F018FB184BE362384606F013FB174BAF
:101CA000C4F8203304F54D70FEF723FD224604F5F9
:101CB0004D713046FEF768FD3046FFF7DDF82846E7
:101CC00018F08FFA0E4A0F49204618F0A2FA0E4873
:101CD00002B0BDE8F04100F0D3B800BF50230120AE
:101CE0002C1500207402002008000020780200203B
:101CF00038BF01089CBE0108D0BE010804BF01081E
:101D000000000020E11B0008B01400207047000014
:101D1000014800F0C7B800BFB014002010B504217E
:101D2000044618F07BFA204610BD10B57821044611
:101D300018F074FA204610BD10B57C21044618F046
:101D40006DFA204610BD0000F8B5394C394D3A4FB8
:101D50003A4B3B492B602246284618F05AFA394E36
:101D60003846FFF753FE22463749384618F051FAF5
:101D700030460FF02DFD22463449304618F049FA1E
:101D800022463349334818F044FA33483349416610
:101D90003349C56000230122324D0385C0E9017635
:101DA000C0E90433C0E90633C0E9083380F82A30BB
:101DB000C3620386C0E90E33C0E9103380F84830AF
:101DC00080F8492080F84A3080F84B30C0E913335E
:101DD000C0E91533C0E9173380F8683080F86930FE
:101DE00080F86A3080F86B3080F86C300860F02141
:101DF00029801D4D036729801C4D80F874304FF4F5
:101E0000A07129801A4D80F875302980194980F811
:101E100076300B70184B80F8772080F8782080F8A7
:101E20003420036022461549BDE8F84018F0F1B9A6
:101E3000000000200C0700201007002024C001082B
:101E4000011B000830150020D5190008031B0008ED
:101E50007912000808000020B014002001000001E1
:101E6000F4220120E6220120EC220120E8220120B8
:101E7000EE220120EA2201204CBF0108051B0008C8
:101E800070B50446FFF782FB2368D3F88850044BF3
:101E9000D4E90F122046AC46BDE87040604700BF51
:101EA00000B004D008B503680446D3F880309847E2
:101EB000236820469B6F9847FFF70EFE2368204655
:101EC0001B6F9847292000F00FFDFFF705FE2368E0
:101ED00020461B6F9847F8E7FFF708BBFFF70CBBDE
:101EE000FFF77ABBFFF7DEBAFFF7B2BBFFF7BABB6B
:101EF000FFF7E2BA06F090BC032821D8DFE800F033
:101F0000020B12190F4B1A68B2FA82F2520904211D
:101F10000D4802F02BBE0B4B5A68B2FA82F25209FE
:101F20000821F5E7074B9A68B2FA82F252091021AC
:101F3000EEE7044BDA68B2FA82F252092021E7E7B1
:101F4000704700BFA815002000100240032821D8C8
:101F5000DFE800F0020B12190F4B1A68003218BFAD
:101F6000012204210D4802F001BE0B4B5A680032D9
:101F700018BF01220821F5E7074B9A68003218BF05
:101F800001221021EEE7044BDA68003218BF01226B
:101F90002021E7E7704700BFA8150020001002408D
:101FA00003280DD8DFE800F00206080A04210548DE
:101FB00002F0E1BD0821FAE71021F8E72021F6E759
:101FC000704700BF0010024008B5032811D8DFE8B1
:101FD00000F0020A0C0E0421074802F0C1FD431E66
:101FE0005842584108BD0821F6E71021F4E72021A6
:101FF000F2E70020F3E700BF0010024070B5084D83
:1020000000240126E0B2FFF7DFFF28B155F82430A5
:10201000012B18BF45F824600134052CF2D170BDA6
:10202000A815002038B50C4B0C4C18800C4B8220A6
:1020300019806368984740F6110398420AD1094D08
:1020400023682C60822098472B688220DB689847A1
:10205000002038BD0120FCE7B81500205400002006
:10206000BA150020BC1500204FF4A071F020FFF736
:10207000D9BF0000F7B5324D2B6804461B6982209A
:10208000984780B22080002852D02B680DF10602BC
:102090005B6901A982209847BDF8062040F6746369
:1020A0009A4247D9ADF80630BDF806209B1A9BB27C
:1020B0000B22B3FBF2F333B1224A12889A423CBF9F
:1020C00002F1FF339BB2BDF8042040F6B8318A42DA
:1020D00095BFC2F57162C2F56D620E320832ADF87D
:1020E0000420BDF804100F22B1FBF2F131B1164A01
:1020F00012888A423CBF02F1FF3189B2134E144D5F
:1021000030682F6882B2814288BF8A1AB8B298BFFD
:10211000521ABB428CBF181AC01A92B280B2024443
:10212000052AC4BF31602B60336863802B68A380AD
:1021300003B0F0BDB32A9CBFB422ADF80620B3E7CC
:10214000BC150020BA150020B8150020C0150020CD
:10215000C415002037B568460D461446FFF78AFFC0
:10216000BDF8000030B1BDF802302B60BDF804307E
:102170002360012003B030BD054BD3F8882042F422
:102180007002C3F888204FF000629A60704700BF69
:1021900000ED00E070B588B000230293204B1A6C6C
:1021A00042F010021A641B6C03F0100302930646FF
:1021B00001A903A8029B01F0C9F9069B4BBB01F0E2
:1021C000A5F9184C184B236040F2E733E360174B36
:1021D000B0FBF3F001380023606020462361A36068
:1021E000A36101F01DFB054680B9204601F0CEF940
:1021F000054658B9362002F04BF80F2E0DD82A4666
:102200003146362002F010F8094B1E60284608B00F
:1022100070BD01F07BF94000D3E70125F6E700BF70
:1022200000380240F82301200010004040420F0017
:102230004C00002007B5064B02A91B6821F8020DCF
:102240000122044802F0BBFD03B05DF804FB00BFAF
:10225000140000209824012008B5642005F03FF9FF
:10226000FBE7000008B501220A490B480B4C0C4D56
:102270000C4E02F06EFB23783BB10023082231465E
:10228000286805F015FA002323700A2005F027F9C5
:10229000F1E700BFA4250120A8250120CD150020CD
:1022A000F0240120F025012030B595B03022002126
:1022B00008A818F03AF81422002103A818F035F8FD
:1022C00000241D4B01941A6C42F080521A641B6C5E
:1022D00003F080530193019B184B02941A6842F457
:1022E00040421A601B6803F4404302930122029BA0
:1022F0004FF48033CDE9082302254FF48003CDE964
:102300000E5308214FF4A873CDE9101308A8042335
:102310001393129500F082FE0F23CDE903354FF49D
:10232000A0504FF48053CDE90603052103A805947E
:1023300001F04EF815B030BD00380240007000408A
:102340002DE980489BB003F049FAFFF7ADFF142256
:1023500000210DA8002417F0E8FFC74B00941A6B6A
:10236000C648C74D42F010021A631A6B02F0100201
:102370000092009A01941A6B42F020021A631A6BC1
:1023800002F020020192019A02941A6B42F080023C
:102390001A631A6B02F080020292029A03941A6B7B
:1023A00042F004021A631A6B02F004020392039AC9
:1023B00004941A6B42F001021A631A6B02F00102D4
:1023C0000492049A05941A6B42F002021A631A6B83
:1023D00002F002020592059A06941A6B42F040023E
:1023E0001A631A6B02F040020692069A07941A6B5F
:1023F00042F008021A631B6B03F00803079322469E
:102400003C21079B02F0B2FB224604219D4802F0CA
:10241000ADFB22464FF440519B4802F0A7FB2246F9
:102420004FF4C041994802F0A1FB01264FF0030888
:102430003C230DA99148CDF8408002274FF0040AB3
:10244000CDE90D360F9402F09DFA0DA98D480F9439
:10245000CDE90DA6109702F095FA4FF404130DA9DB
:102460008B480D96CDE90E3402F08CFA4FF44053B0
:102470000DA98548CDE90D36CDE90F4702F082FA66
:102480004FF4C0430DA98148CDE90D36CDE90F4485
:1024900002F078FA05212246062001F0C5FE06204A
:1024A00001F0F6FE7B487C4B036003F005FB7B4AA2
:1024B0007B4B2C62C5E9002328464FF48043C5E9D5
:1024C0000434C5E90244C5E9064401F0ABFB102120
:1024D000284601F051FE2146284601F06FFE714862
:1024E000714984624FF48273C0E900134FF40075A0
:1024F0001823C0E906530A236C4DC362C0E90244A5
:10250000C0E90444C0E9084402F0FAFB684B0D97A7
:10251000C5E900364FF010094023C5E904934FF494
:10252000C073C5E906344FF40063C5E908344FF4BD
:102530000053AB620DA907232846CDE90E3ACDE939
:1025400010384FF0080BC5E9024ACDE9127700F0C8
:102550000FFD4FF6FF7209A9284608940996CDE9A8
:102560000AB60C9400F024FD304603F063F94FF6F0
:10257000FF7209A92846CDE9097BCDE90B6400F07B
:1025800017FD4FF6FF7209A92846CDE9098BCDE961
:102590000BA400F00DFD4FF40C730893089B0C93F3
:1025A0004FF6FF7209A92846CDE909AB0B9600F05A
:1025B000FFFC40F26A51284600F018FD3422214603
:1025C0000DEB020017F0B1FE3A4D3B4B2C61C5E913
:1025D00000340923C5E905361D2340F20D1CC5E969
:1025E000073840F24313C5E909C340F2171E40F211
:1025F0004713C5E90BE3C5E90244AC8685F83640CC
:10260000284602F0C5FFFF21F022CDE912144FF455
:10261000806805214FF4A073CDE90E24CDE9148123
:10262000CDE916420DA922462846CDE91037234DA3
:1026300018930D94ADF864408DF8664003F085F86A
:102640001F4B2B601B68DFF884A098472B681D4D3B
:10265000DB6898471C4BC5E90A47C5E90C44284686
:10266000C5E90034C5E9027402F0E4FD31462846AC
:1026700002F0A0FE2CE000BF003802400010024033
:102680004424012000080240000C024000180240CF
:1026900000000240F424012000300240005C0040B1
:1026A000A08601009824012000500140442601200A
:1026B000400100A0FC24012000680140C815002052
:1026C0007C0000200426012000B0024000100140E0
:1026D00019484FF4E133C0E900A30C23C0E90534E5
:1026E000C0E902440461C46101F014FF03F0F5F98C
:1026F00003F0F2F9114A1248214604F0A7FE114BEB
:10270000114A18602146114804F0A0FE104B114AEE
:1027100018602146104804F099FE104B104A1860CA
:102720004946484604F088FF0E4B186004F062FEEC
:1027300004F072FEFEE700BFA825012070C001086A
:1027400059220008402401204CC00108E95A000821
:10275000EC250120ACC001086522000800260120FC
:1027600094C00108F024012038B5124D2C7824B90A
:1027700010222146104817F0D8FD104B0E4A1B7846
:102780000D2B0BD00F2C09D0611C13552970012281
:102790000A490B48BDE8384002F0DBB80023135566
:1027A0002B70084B084801224FF480411A7002F048
:1027B000E2F9ECE7CC150020F0250120A42501204A
:1027C000A8250120CD15002000180240012808B5D9
:1027D0000BD14FF40051064802F0CDF92F220549E4
:1027E0000548BDE8084001F0C5BE00BF08BD00BFF8
:1027F0000018024018000020A825012070477047EB
:1028000010B586B006AC074B04F8012D1B68029387
:1028100001230A46CDE900430146034801F0B2FA1C
:1028200006B010BD10000020442401207FB506AA88
:10283000002302F8013D084B1B6802930123CDE9F8
:1028400000230A460146054801F030FB9DF81700B9
:1028500007B05DF804FB00BF1000002044240120F5
:102860001FB5084C24680092CDE901340A460123C3
:102870000146054801F01AFB003018BF012004B0E2
:1028800010BD00BF100000204424012002F0D2BF80
:1028900010B5064C00222046042102F067F92046BC
:1028A00001220421BDE8104002F060B90008024096
:1028B00038B50B4C054601224FF40051094802F08F
:1028C00055F900220421204602F050F92846FFF76E
:1028D000B1FC204601220421BDE8384002F046B98F
:1028E00000080240000C024038B50B4C054600229F
:1028F0004FF40051094802F039F900220421204622
:1029000002F034F92846FFF795FC20460122042105
:10291000BDE8384002F02AB900080240000C02402D
:10292000F7B5144C144D07460E46204600220421EC
:1029300002F01CF900224FF40051284602F016F96B
:102940003846FFF777FC0D4B0D481B68324601A94E
:1029500002F0D1FB284601224FF40051019E02F003
:1029600005F920460122042102F000F9304603B0A7
:10297000F0BD00BF00080240000C0240140000201F
:102980009824012002F056BF0268034B9A4201D1FD
:1029900002F03EBF704700BF001000407047704714
:1029A000FEE7FEE7FEE7FEE77047012002F0ECB825
:1029B000014801F067BE00BFA8250120014800F0D2
:1029C00023BE00BFF8230120014802F05DBE00BF16
:1029D000FC240120014802F05DBC00BF0426012058
:1029E00008B50A4B1968024609B9094919601868FF
:1029F000694602448A4206D917F048FC0C2303605A
:102A00004FF0FF3008BD1A60FCE700BFD015002072
:102A1000C026012082B00E4B00220092596C41F476
:102A200080415964596C01F48041009100990192F0
:102A3000196C41F0805119641B6C03F080530193B1
:102A4000019B0F216FF0010002B001F0EDBB00BF50
:102A5000003802400268094B9A4282B00BD1002331
:102A60000193074B1A6B42F480521A631B6B03F4F9
:102A700080530193019B02B0704700BF00300240B9
:102A80000038024007B50F4B02689A4216D1002267
:102A9000A3F5F0430192196B41F4000119631B6B1C
:102AA00003F40003019305215A20019B01F0BCFBB4
:102AB0005A2003B05DF804EB01F0EABB03B05DF807
:102AC00004FB00BF00B002402DE9F043044689B08A
:102AD0001422002103A817F028FC2268244B9A42F4
:102AE00043D1244C244800250095236B43F0040374
:102AF0002363236B03F004030093009B0195236B76
:102B000043F001032363236B03F001030193019B53
:102B10004FF012094FF400734FF001080327042609
:102B200003A9CDE90339CDE90587079601F02AFF0E
:102B30004FF4807303A911480796CDE90339CDE915
:102B4000058701F01FFF0295236C43F40003236403
:102B5000236C03F400030293029B236A43F40003F3
:102B60002362236A23F40003236209B0BDE8F083E3
:102B7000005C0040003802400008024000000240B3
:102B8000F0B599B004461422002107A817F0CDFB38
:102B900030220DEB0200002117F0C7FB22685E4BCC
:102BA0009A4240F0B78008230C93C023109304236B
:102BB00012930CA84FF40033159302F04FFE08B1A6
:102BC000FFF7ECFE554B5648002400945A6C42F037
:102BD00080625A645A6C02F080620092009A0194FA
:102BE0001A6B42F020021A631A6B02F02002019263
:102BF000019A02941A6B42F001021A631A6B02F0F6
:102C000001020292029A03941A6B42F002021A63C2
:102C10001A6B02F002020392039A04941A6B42F0B8
:102C200040021A631A6B02F040020492049A05945F
:102C30001A6B42F004021A631A6B02F00402059246
:102C4000059A06941A6B42F008021A631B6B03F094
:102C50000803069302250E26069B0B964FF480630D
:102C600007A9CDE90735CDE9094501F08BFE41F60D
:102C7000580307A92B480B96CDE907350927CDE95D
:102C8000094501F07FFE032307A927480B97CDE9EB
:102C90000735CDE9094501F075FE4FF4706307A9CA
:102CA00021480B96CDE90735CDE9094501F06AFECB
:102CB0004FF40C6307A91D480B96CDE90735CDE904
:102CC000094501F05FFEC02307A919480B96CDE91D
:102CD0000735CDE9094501F055FE082307A9154838
:102CE0000B96CDE90735CDE9094501F04BFE4FF4D0
:102CF000A05307A90D480B97CDE90735CDE9094544
:102D000001F040FE58202246052101F08DFA58209E
:102D100001F0BEFA19B0F0BD006801400038024071
:102D2000001402400000024000040240001802406B
:102D300000080240000C024010B5044688B014227E
:102D4000002103A817F0F1FA2268144B9A4223D10C
:102D500003F56843002101915A6C114842F4801236
:102D60005A645A6C02F480120192019A02911A6B11
:102D700042F020021A631B6B03F020030293029BB4
:102D80004FF4607202230321CDE903230523CDE92B
:102D9000061303A901F0F6FD08B010BD0050014074
:102DA0000014024010B5044688B01422002103A884
:102DB00017F0BBFA2268184B9A422BD103F59433D3
:102DC000002401945A6C154842F010025A645A6C5F
:102DD00002F010020192019A02941A6B42F0010271
:102DE0001A631B6B03F0010302934FF4C062029B52
:102DF0000223CDE9032303210723CDE9061303A909
:102E000001F0C0FD25202246052101F00DFA252004
:102E100001F03EFA08B010BD001001400000024071
:102E20002DE9F04186B01422002101A817F07DFAA7
:102E30002B4B1C68002C4FD14FF00108C3F80080C9
:102E4000284B00949A6B284842EA08029A639B6BCD
:102E500003EA08030093022703260C25009B01A91F
:102E60004FF63F03CDE90137CDE9046501F08AFD56
:102E700001A91E480595CDE90187CDE9034601F07A
:102E800081FD48F2331301A919480595CDE90137B1
:102E9000CDE9034601F076FD4FF6837301A915488D
:102EA0000595CDE90137CDE9034601F06BFD4CF204
:102EB000037301A910480595CDE90137CDE9034613
:102EC00001F060FD602301A90C480595CDE90137AB
:102ED000CDE9034601F056FD06B0BDE8F08100BF24
:102EE000D4150020003802400014024000080240BF
:102EF0000018024000100240000C02400004024092
:102F00000120704708B517F0C1F9162303604FF090
:102F1000FF3008BD08B517F0B9F916230360FEE7C6
:102F200070B50E4615460C46A31B9D4201DC284693
:102F300070BDAFF3008004F8010BF5E770B50E46E5
:102F400015460C46A31B9D4201DC284670BD14F8B3
:102F5000010BAFF30080F5E74FF0FF3070474FF4FF
:102F600000534B60002070470120704700207047DD
:102F700038B50D460446C8B190F82C3003F0FF0276
:102F80001BB980F82D20FFF74BFF022384F82C306B
:102F9000211D206801F08AF962682068294601F045
:102FA000B9F9012384F82C30002038BD0120FCE75A
:102FB00070B5054690F82C00C0B202280E4612D01B
:102FC00000F0FB04012C0FD1022385F82C30286877
:102FD00001F0E2F93368022B06BF052385F82C3097
:102FE00085F82C40002070BD0120FCE738B5044670
:102FF00090F82C00C0B202280DD094F82C50EDB2FD
:10300000012D09D1022384F82C30206801F0E8F961
:1030100084F82C50002038BD0120FCE72DE9F34155
:10302000044608B9012041E00368DD0710D4236895
:1030300098075AD423681A0700F19C8023685B071D
:1030400000F1BA80A069002840F01C8100202DE02A
:10305000A44B9A6802F00C02042A07D09A6802F086
:103060000C02082A0AD15B68590207D59D4B1B68E0
:103070009A03DCD56368002BD9D1D3E76268994BFA
:10308000B2F5803F15D11A6842F480321A60636845
:10309000F3B102F0C9FB934D06462B689B03C6D4DF
:1030A00002F0C2FB801B6428F7D9032002B0BDE800
:1030B000F081B2F5A02F1A6803D142F480221A6081
:1030C000E1E722F480321A601A6822F48022DDE7F8
:1030D00002F0AAFB834D06462B689F03A7D502F09A
:1030E000A3FB801B6428F7D9DFE77E4B9A6812F0B8
:1030F0000C0F07D09A6802F00C02082A11D15B6805
:103100005E020ED4774B1A68950702D5E268012A51
:1031100088D11A68216922F0F80242EAC1021A60D5
:1031200088E7E268704BB2B101221A6002F07CFBC2
:103130006C4D06462B68980707D52B68226923F04B
:10314000F80343EAC2032B6074E702F06DFB801BB7
:103150000228EFD9A9E71A6002F066FB614D064626
:103160002B6899077FF566AF02F05EFB801B022893
:10317000F6D99AE762695D4B7AB101221A6002F0D2
:1031800053FB584D06466B6F9F073FF557AF02F054
:103190004BFB801B0228F6D987E71A6002F044FB3C
:1031A000504D06466B6F98077FF548AF02F03CFB29
:1031B000801B0228F6D978E74A4B1A6C12F080522D
:1031C0002BD101921A6C42F080521A641B6C03F0EE
:1031D00080530193019B0126454D2B68D9051ED5CF
:1031E000A268404B012A2AD11A6F42F001021A67E5
:1031F000A368002B37D002F017FB3A4D074641F287
:1032000088382B6F9B0728D5002E3FF41BAF354A1B
:10321000136C23F08053136414E70026DCE72B685B
:1032200043F480732B6002F0FFFA07462B68DA053F
:10323000D6D402F0F9FAC01B0228F7D935E7052ADF
:103240001A6F03D142F004021A67CDE722F001029F
:103250001A671A6F22F00402C9E702F0E5FAC01BF0
:103260004045CED921E702F0DFFA1E4D074641F274
:1032700088382B6F9807C7D502F0D6FAC01B404597
:10328000F7D912E7174DAB6803F00C03082B46D0B3
:10329000184E00230228336034D102F0C5FA0746E5
:1032A0002B68990128D4D4E907321343626A43EAB0
:1032B0008213E26A43EA0263A26A0A4C5208013AA4
:1032C00043EA02436B600123336002F0ADFA054626
:1032D00023689A013FF5BAAE02F0A6FA401B022815
:1032E000F6D9E2E60038024000004742800E47422D
:1032F000007000406000474202F096FAC01B0228AE
:10330000CED9D2E602F090FA04462B689B017FF5F5
:103310009DAE02F089FA001B0228F6D9C5E6012805
:103320003FF4C4AE6B68E26903F4800191427FF41C
:1033300079AE216A03F03F028A427FF473AE616A7C
:1033400047F6C0721A40B2EB811F7FF46BAEA26ADF
:10335000520803F44031013AB1EB024F7FF462AE00
:10336000E26A03F07063B3EB026F14BF0120002028
:103370009CE600BF08B513498B6803F00C03042BCF
:1033800003D0082B03D0104800E0104808BD4A685D
:103390004B68496813F4800314BF0C480A48C1F312
:1033A000881118BF002302F03F02A1FB0001FCF7C7
:1033B0001FFF044B5B68C3F3014301335B00B0FBA9
:1033C000F3F0E3E7003802400024F40000127A0032
:1033D0002DE9F0410D46044610B90120BDE8F08109
:1033E000454B1A6802F00F028A422AD323689E07CF
:1033F0002FD42368D90743D43F4B1A6802F00F0239
:10340000AA4268D823685A076ED423681B0707D5D9
:103410003A4A2169936823F4604343EAC103936005
:10342000FFF7A8FF354B364A9B68C3F30313D35C01
:10343000D840344B1860344B1868FEF7ABFE0020C0
:10344000CCE7CAB21A701B6803F00F038B42C4D1D9
:10345000CCE7580741BF294A936843F4E05393608F
:103460002368264A13F0080F1EBF936843F4604395
:1034700093609368A16823F0F0030B439360B8E76F
:1034800062681E4B012A1CD11B6813F4003FA4D0B4
:103490001A4EB36823F003031343B36002F0C4F978
:1034A00041F288380746B368626803F00C03B3EB57
:1034B000820FA1D002F0B8F9C01B4045F3D9032018
:1034C0008CE7911E01291B6802D813F0007FDEE70C
:1034D00013F0020FDBE7EAB21A701B6803F00F0368
:1034E000AB427FF47AAF8DE7044AE168936823F436
:1034F000E0530B43936088E7003C024000380240F1
:1035000034C001080C0000204C000020044B054A88
:103510009B68C3F38223D35C034A1068D84070478A
:103520000038024044C001080C000020044B054A4A
:103530009B68C3F34233D35C034A1068D84070479A
:103540000038024044C001080C0000200F23036033
:103550000B4B9A6802F0030242609A6802F0F00294
:1035600082609A6802F4E052C2609B68DB0803F450
:10357000E0530361034B1B6803F00F030B607047BC
:1035800000380240003C02407047000090F83D3097
:10359000012B31D10268022380F83D30D36843F01B
:1035A0000103D3600368154A93421AD0B3F1804FE8
:1035B00017D0A2F57C42934213D002F58062934269
:1035C0000FD002F5806293420BD002F5784293420D
:1035D00007D002F57052934203D0A2F59432934281
:1035E00004D19A6802F00702062A03D01A6842F052
:1035F00001021A600020704701207047000001405E
:10360000704770477047704710B503681A69910793
:1036100004460FD5DA6892070CD56FF002021A61E2
:103620000123037703689B699B077AD0FFF7E9FFC3
:103630000023237723681A69500711D5DA685107E8
:103640000ED56FF004021A610223237723689B6969
:1036500013F4407F20466AD0FFF7D3FF002323777F
:1036600023681A69120710D5DA6810070DD56FF0B4
:1036700008021A61042323772368DB69990720462F
:103680005BD0FFF7BEFF0023237723681A69D206B9
:1036900011D5DA68D0060ED56FF010021A61082332
:1036A00023772368DB6913F4407F20464BD0FFF774
:1036B000A8FF0023237723681A69D10708D5DA68A1
:1036C000D20705D56FF001021A612046FFF75CF9B9
:1036D00023681A69100608D5DA68110605D56FF057
:1036E00080021A61204600F08BFD23681A69520699
:1036F00008D5DA68500605D56FF040021A612046F9
:10370000FFF781FF23681A69910622D5DA689206CD
:103710001FD56FF020021A612046BDE8104000F06E
:103720006EBDFFF76DFF2046FFF76CFF80E7FFF7E8
:1037300067FF2046FFF766FF90E7FFF761FF20462F
:10374000FFF760FF9FE7FFF75BFF2046FFF75AFF99
:10375000AFE710BD304A0368904212D0B0F1804FFD
:103760000FD0A2F57C4290420BD002F580629042CD
:1037700007D002F58062904203D002F57842904271
:1037800019D14A6823F070031343234A904229D089
:10379000B0F1804F26D0A2F57C42904222D002F5B3
:1037A000806290421ED002F5806290421AD002F5EB
:1037B0007842904216D0194A904213D002F58062A6
:1037C00090420FD002F5806290420BD0A2F5983261
:1037D000904207D002F58062904203D002F58062E9
:1037E000904203D1CA6823F4407313434A6923F01B
:1037F0008003134303608B68C3620B688362064BCC
:10380000984203D003F58063984201D10B690363AA
:1038100001234361704700BF0000014000400140A8
:1038200010B5044630B390F83D3003F0FF021BB9E9
:1038300080F83C20FFF7A8FE022384F83D30206882
:10384000211DFFF787FF012384F84630002084F80C
:103850003E3084F83F3084F8403084F8413084F8BA
:10386000423084F8433084F8443084F8453084F89A
:103870003D3010BD0120FCE701684B6913F4806303
:103880004FF0000210D06FF480634B61202302637D
:1038900080F83D3080F83E20036C80F83C2043F0F7
:1038A0000403036401207047184670472DE9F04176
:1038B0000446164698468FB22568686937EA0000C4
:1038C00018D06B695A0517D52B6843F400732B6029
:1038D00023686FF480625A6100232022236384F8F6
:1038E0003D2084F83E30226C42F00402226484F8C9
:1038F0003C300120BDE8F081731CDED001F094FF64
:10390000A0EB0800B04201D8002ED5D10023202220
:10391000236384F83D2084F83E30226C42F020027C
:10392000E4E770B504460D46164623685B695B07FD
:1039300001D5002070BD2046FFF79EFFA8B96A1C84
:10394000F3D001F071FF801BA84201D8002DECD10B
:1039500000232022236384F83D2084F83E30226C2B
:1039600084F83C3042F0200222640120E2E770B586
:1039700004460D4616462068436913F0400301D003
:10398000002010E04269D2060ED56FF010024261AD
:103990002022236384F83D2084F83E30226C226488
:1039A00084F83C30012070BD01F03EFF801BA8422E
:1039B00001D8002DDFD100232022236384F83D208D
:1039C00084F83E30226C42F02002E8E72DE9F8430B
:1039D000089E044690461F464FEA11498DB2216861
:1039E000B9F1010F0CBF4B698B6935EA03030CBFBA
:1039F00001230023984501D0002016E07B1CEFD066
:103A000001F012FF801BB84201D8002FE7D100233C
:103A10002022236384F83D2084F83E30226C84F811
:103A20003C3042F0200222640120BDE8F88370B5EA
:103A300004460D46164623685B691B0601D5002027
:103A400070BD2046FFF718FFA8B96A1CF3D001F03B
:103A5000EBFE801BA84201D8002DECD100232022D0
:103A6000236384F83D2084F83E30226C84F83C3097
:103A700042F0200222640120E2E700002DE9FF412C
:103A8000154602680B9E9846136843F480731360D2
:103A90000F460A9B009600224FF001110446FFF7E3
:103AA00095FF236838B11B68DB0502D54FF400731E
:103AB000236403200AE007F0FE071F610A9A1949F0
:103AC00033462046FFF7F2FE18B1012004B0BDE8EE
:103AD000F081236803905A6903929B6903933246ED
:103AE0000A99039B2046FFF7A2FF40B1236C042BE9
:103AF00001BF2268136843F400731360E5E7B8F16F
:103B0000010F236802D1EDB21D61DFE72A0A1A61B5
:103B10000A9932462046FFF78AFF0028E6D123683B
:103B2000F1E700BF020001002DE9FF4116460268DF
:103B30000B9D9846136843F4806313600268136812
:103B400043F4807313600F460A9B009500224FF0E8
:103B500001110446FFF73AFF236848B11B68DB05F3
:103B600002D54FF400732364032004B0BDE8F08154
:103B7000FFB207F0FE021A6129490A9A2B46204635
:103B8000FFF794FE08B10120EFE7236803905A691C
:103B900003929B6903932A460A99039B2046FFF7E9
:103BA00046FF40B1236C042B01BF2268136843F425
:103BB00000731360E7E7B8F1010F236825D1F6B26F
:103BC0001E612A460A992046FFF731FF0246002867
:103BD000E8D121680B6843F480730B6020460A9B90
:103BE00000954FF00111FFF7F1FE23680028B5D1D1
:103BF00047F001071F610A9A09492B462046FFF743
:103C000055FE003018BF0120AFE7320A1A610A9949
:103C10002A462046FFF70BFF0028C3D12368CEE7D2
:103C20000200010070B5044608B9012070BD90F88B
:103C30003D3003F0FF021BB980F83C20FEF744FF43
:103C40002268242384F83D30136823F001031360B5
:103C50002268136843F4004313602268136823F456
:103C600000431360FFF752FC424B62689A4294BFD4
:103C7000414B424B98428CBF00230123002BD4D1EF
:103C800022683F495368B0FBF1F123F03F030B4337
:103C900053606668374B25689E4288BF4FF4967321
:103CA0002A6A8ABF4B434B1C4FF47A7122F03F02C1
:103CB00084BFB3FBF1F3013313432B6221686368C4
:103CC000CA692C4D22F44F42AB4222F0FF0200F1B0
:103CD000FF3035D85B00B0FBF3F0431CC3F30B039C
:103CE000042B38BF04231343CB612168D4E9073088
:103CF0000A68034322F0C00213430B602168D4E931
:103D000003038A6822F40342034322F0FF021343B1
:103D10008B602168D4E90530CA68034322F0FF02B2
:103D20001343CB602268136843F001031360002043
:103D30002023206484F83D30206384F83E0075E73A
:103D4000A56855B903EB4303B0FBF3F0431CC3F381
:103D50000B036BB143F40043C5E719256B43B0FB7C
:103D6000F3F0431CC3F30B0313B143F44043BAE72E
:103D70000123B8E7A08601007F841E00FF083D00F4
:103D800040420F002DE9F743044699460F469046FE
:103D90000C9E01F049FD94F83D30202B054603D0E0
:103DA000022003B0BDE8F0830090192301223D49B1
:103DB0002046FFF70BFE0028F2D194F83C30012B8F
:103DC000EED0012384F83C3023681A68D2075EBF26
:103DD0001A6842F001021A602268136823F4006333
:103DE0001360212384F83D30402384F83E300023C3
:103DF00023640A9B6362BDF82C306385638D238541
:103E0000294BE362CDE900654B46424639462046E0
:103E1000FFF734FE00282DD00120C2E7FFF707FE90
:103E200040B1236C042B01BF2268136843F4007374
:103E30001360F1E7626A236812781A61616A628D21
:103E40004B1C6362238D013A92B2013B62859BB2A7
:103E500022682385506940070CD55BB14B7813610C
:103E6000636A01336362238D013B2385638D013BCC
:103E70009BB26385238D2A4631462046002BCDD147
:103E8000FFF74FFD0028CCD12268136843F400737C
:103E90001360202384F83D3084F83C0084F83E0011
:103EA0007FE700BF020010000000FFFF2DE9F04394
:103EB000044687B099460D469046109F01F0B4FC29
:103EC00094F83D30202B064604D00225284607B042
:103ED000BDE8F08300901923012278492046FFF7BE
:103EE00075FD0028F1D194F83C30012BEDD0012371
:103EF00084F83C3023681A68D0075EBF1A6842F025
:103F000001021A602268136823F4006313602223FD
:103F100084F83D30402384F83E30002323640E9B18
:103F20006362BDF83C306385638D2385644BE36237
:103F30002946CDE900764B4642462046FFF7F4FD80
:103F4000054608B10125C1E7228D2368B2B9029068
:103F50005A6902929A690292029A1A6842F40072AD
:103F60001A60DFF86081238D002B2FD1202284F886
:103F70003D2084F83C3084F83E30A7E7012A0BD17D
:103F80001A6822F480621A60236803905A690392C7
:103F90009A690392039AE0E7022A10D11A6822F480
:103FA00080621A602268136843F400631360236818
:103FB00004905A6904929B690493049BD1E705908D
:103FC0005A6905929B690593059BCAE7032B58D84C
:103FD000012B15D1324639462046FFF7C8FC002890
:103FE000B0D123681A69636A1A70636A0133636225
:103FF000238D013B2385638D013B9BB26385B2E733
:10400000022B00963B464FF00002414620461AD153
:10401000FFF7DCFC002895D12268136843F4007395
:10402000136023681A69636A1A70626A531C6362B8
:10403000238D013B2385638D013B9BB26385236800
:104040001B695370D1E7FFF7C1FC024600287FF4DB
:1040500079AF21680B6823F480630B6023681969CA
:10406000636A1970636A009601336362238D013BB2
:104070002385638D013B9BB2638541463B462046C9
:10408000C6E7324639462046FFF771FC00287FF428
:1040900059AF23681A69636A1A70626A531C6362B3
:1040A000238D013B2385638D013B9BB26385236890
:1040B000596949077FF557AFC2E700BF02001000FA
:1040C0000000FFFF0400010070B50446856D01F09B
:1040D000ABFB94F83530022B064606D0802363658F
:1040E000002384F83430012070BD2268136823F067
:1040F000160313602268536923F080035361236C15
:104100000BB9A36C23B12268136823F00803136072
:104110002268136823F0010313602368186810F005
:10412000010009D1E26D3F239340AB60012384F885
:10413000353084F83400D7E701F076FB801B052882
:10414000EBD9202363650320002384F8350084F82D
:104150003430C9E790F83530022B03D08023436513
:10416000012070470268052380F83530136823F07A
:10417000010313600020704710B590F83D30DBB2AA
:10418000202B19D10468242280F83D20226822F0D7
:10419000010222600468626A22F01002626204680E
:1041A000626A1143616201680A6842F001020A60B2
:1041B00080F83D30002010BD0220FCE730B590F8BB
:1041C0003D20D2B2202A18D10568242380F83D3042
:1041D0002C6824F001042C600468656A4FF6F073C3
:1041E0002B400B439BB2636201680B6843F00103F1
:1041F0000B6080F83D20002030BD0220FCE77047B6
:1042000070470000074AD36823F4E0631B041B0CCB
:1042100043F0BF63000243F4003300F4E060034363
:10422000D360704700ED00E070B5174BDC68C4F355
:104230000224C4F10705042D04F1040328BF04255A
:104240004FF0FF36062B06FA05F38CBF033C002423
:1042500021EA0303A34006FA04F422EA0404002836
:1042600043EA0403A8BF00F160404FEA0313BCBF58
:1042700000F00F00054ADBB2AABF00F561401354FD
:1042800080F8003370BD00BF00ED00E014ED00E0E9
:10429000002808DB4209012300F01F0003FA00F0A8
:1042A000014B43F82200704700E100E030B5D1E94E
:1042B00007340A684D6A2343154C92B902682B43B0
:1042C000224013434A6813438A681343CA6813435E
:1042D0000A6913434A6913438A6913430360002040
:1042E00030BD02682B4322F4F84213430360436855
:1042F0004A68234013438A681343CA6813430A6910
:1043000013434A6913438A6913434360E7E700BFD5
:104310000080FFFF30B5CB684D695C1E6B1E1B052E
:1043200043EA0434CAB90B688268013B02F0704268
:10433000234313434A68013A43EA02138A68013A65
:1043400043EA02230A69013A43EA02438A69013ACD
:1043500043EA02638360002030BD836823F4700366
:1043600023F4704323438360C3684A6803F07043B7
:10437000013A43EA02130A68013A13438A68013A90
:1043800043EA02230A69013A43EA02438A69013A8D
:1043900043EA0263C360DEE770B51546D1E9003237
:1043A000044613430069CA68800D43EA42238A68C1
:1043B00080050343013A43EA4213236101F034FAD2
:1043C0000646A06910F0200003D06B1CF9D00DB98F
:1043D000032070BD01F028FA801BA842F1D9F7E74D
:1043E000436923F47F5323F03E0343EA41014161D3
:1043F00000207047026802F10C0353E8003F23F4E9
:1044000090730C3242E800310029F3D1026802F1C6
:10441000140353E8003F23F00103143242E8003153
:104420000029F3D1036B012B0BD1026802F10C03BD
:1044300053E8003F23F010030C3242E8003100291A
:10444000F3D1202380F83E3000230363704700003F
:1044500070B50268C168136923F440530B431361BC
:104460000546016883680069CA68034368690343B5
:10447000E86922F4164222F00C0203431343CB6096
:104480002A68A969536923F440730B4353612B686D
:104490001F4A934203D002F58062934224D1FFF772
:1044A00045F8EA691923B2F5004FA0FB0301D5E9ED
:1044B00000431CD1DA184FF0000646EB0603FBF769
:1044C00097FE6421B0FBF1F501FB1503DB003233ED
:1044D000B3FBF1F303F007025B0002EB051203F4F8
:1044E000F8731344A36070BDFFF710F8D9E79A0082
:1044F0009B0FFBF77DFE6422B0FBF2F102FB110380
:104500001B013233B3FBF2F303EB0113EAE700BF05
:104510000010014010B5044650B390F83D3003F050
:10452000FF021BB980F83C20FEF73CFC22682423E4
:1045300084F83D30D36823F40053D3602046FFF75E
:1045400087FF2268136923F490431361226853693B
:1045500023F02A0353612268D36843F40053D360E5
:1045600000202023206484F83D3084F83E3010BDC4
:104570000120FCE790F83D30202B18D1A9B1A2B161
:1045800090F83C30012B12D0C28401628284002357
:1045900001680364212280F83D2080F83C30CA681D
:1045A00042F08002CA60184670470120704702201E
:1045B00070477047704708B5806B0023C385C3847C
:1045C000FFF7F8FF08BD704713B590F83E30222B77
:1045D00055D18168836A0268B1F5805F40D1016975
:1045E000002940D15268C2F308021A80836A02335C
:1045F000C48D8362013CA4B2C485002C2ED1026814
:10460000D36823F02003D3600268D36823F4807357
:10461000D3600268536923F001035361202380F8BB
:104620003E30036B012B27D10463016801F10C03B9
:1046300053E8003F23F010030C3141E80032002A18
:10464000F3D103681968C90605D501921A68019269
:104650005B680193019B818DFFF7B5FF00200FE0A0
:1046600031B9016921B952681A70836A0133BFE711
:10467000526802F07F02F7E7FEF776F8EEE70220D5
:1046800002B010BD37B503681A68D9685D6912F0C9
:104690000F0F044608D1950667D58D0665D503B082
:1046A000BDE83040FFF790BF15F0010502D111F4CD
:1046B000907F5AD0D00705D5CB0542BF236C43F07D
:1046C00001032364500704D51DB1236C43F002039A
:1046D0002364930704D51DB1236C43F004032364C2
:1046E000100706D58B0600D41DB1236C43F00803D8
:1046F0002364236C002B32D0900604D5890602D5A2
:104700002046FFF761FF23685D69226C120720468F
:1047100002D415F0400524D0FFF76CFE23685B69D6
:104720005B0619D5226802F1140353E8003F23F019
:104730004003143242E800310029F3D1A36B5BB18E
:10474000744A1A65A06BFFF705FD40B1A06B036DBD
:1047500003B0BDE8304018472046FFF72BFF03B0F9
:1047600030BDFFF727FF2564F9E7206B012840F0F3
:104770009180D50640F18E80C80640F18B800022E2
:1047800001921A6801925A680192019A5B695D066A
:104790004CD5A26B13685B689BB2002BDFD0A18D58
:1047A0009942DCD9E385D369B3F5807F36D022689E
:1047B00002F10C0353E8003F23F480730C3242E80B
:1047C00000310029F3D1226802F1140353E8003FBD
:1047D00023F00103143242E800310029F3D12168AB
:1047E00001F1140353E8003F23F04003143141E882
:1047F0000032002AF3D1202384F83E30226322685D
:1048000002F10C0353E8003F23F010030C3242E89E
:1048100000310029F3D1A06BFFF756FCE38DA18D89
:10482000C91A89B22046FFF7CEFE98E7E18DE28DE6
:1048300092B28BB2002A92D0A18DC91A89B20029F6
:104840008DD0226802F10C0353E8003F23F49073EB
:104850000C3242E800300028F3D1206800F1140344
:1048600053E8003F23F00103143040E80032002AEF
:10487000F3D1202384F83E302263226802F10C0336
:1048800053E8003F23F010030C3242E800300028C8
:10489000F3D1C7E710062BD50D0629D594F83D2096
:1048A000212A7FF45CAFA168226AB1F5805F1AD13A
:1048B0002169C1B91288C2F308025A60236A02331F
:1048C0002362E38C013B9BB2E384002B7FF447AF70
:1048D0002268D36823F08003D3602268D36843F052
:1048E0004003D3603BE7511C216212785A60E8E72D
:1048F00050067FF534AF4A067FF531AFDA6822F013
:104900004002DA60202384F83D302046FFF751FE54
:1049100025E700BFB74500080023C28580F83C307A
:104920000364036982852222816280F83E2023B1DC
:104930000268D36843F48073D3600268536943F01C
:10494000010353610268D36843F02003D360002061
:10495000704770B490F83E60202E10D161B15AB10A
:1049600090F83C40012C0AD0012480F83C400024FF
:10497000046370BCFFF7D0BF012070BC70470220F9
:10498000FBE700002DE9F74FDFF8C8C16F4CDFF8F7
:10499000C881DFF8C8E1002301250A689D402A404C
:1049A000954240F0B9804E6806F003065F0003258B
:1049B000013EBD40012E6FEA050511D8866806EA62
:1049C0000509CE68BE4046EA09068660466826EAC2
:1049D00002094E68C6F300169E4046EA0906466084
:1049E0004E6806F00306032E07D0C66806EA0509DE
:1049F0008E68BE4046EA0906C6604E6806F00306A9
:104A0000022E16D14FEAD30A00EB8A0A03F0070BF5
:104A1000DAF820604FEA8B0B4FF00F0909FA0BF917
:104A200026EA09090E6906FA0BF646EA0906CAF8EB
:104A30002060066835404E6806F00306BE403543E8
:104A400005604D6815F4403F66D04FF0000BCDF87F
:104A500004B0DCF844603E4D46F48046CCF8446037
:104A6000DCF8446006F480460196019E23F00306BC
:104A700006F1804606F59C3603F00309D6F808A037
:104A80004FEA89090F2707FA09F7A8422AEA070718
:104A900049D005F58065A84247D005F58065A84254
:104AA00045D005F58065A84243D0404543D07045C8
:104AB00043D005F54065A84241D005F58065A84280
:104AC0003FD005F58065A8423DD005F58065A84238
:104AD00014BF0A25092505FA09F53D43B5604D685F
:104AE000A768D643ED0254BF37401743A7604D680F
:104AF000E768AD0254BF37401743E7604D68676809
:104B0000AD0354BF3740174367604D682768ED0316
:104B100054BF3740174327600133102B7FF43CAF5D
:104B200003B0BDE8F08F5D46D5E70125D3E7022548
:104B3000D1E70325CFE70425CDE70525CBE70625FB
:104B4000C9E70725C7E70825C5E700BF003C0140C6
:104B500000000240003802400010024000140240F1
:104B60000369194214BF0120002070470AB1816116
:104B700070470904FBE7436901EA030221EA0301E4
:104B800041EA02418161704708B5044B596901420D
:104B900002D05861FDF71AFE08BD00BF003C01407D
:104BA0002DE9F3411D4616460F46044600F03CFE33
:104BB00035442D1A00F038FE244B1B68C3F3CB3369
:104BC00080466B4322680193936837EA030301D060
:104BD000002031E0731CF7D000F026FEA0EB0800A7
:104BE000A8422CD32268536823F0E0035360636823
:104BF000B3F5827F0BD1A368B3F5004F02D0B3F5B4
:104C0000806F04D12268136823F040031360A36A05
:104C1000B3F5005F09D12268136823F400531360D1
:104C20002268136843F400531360012384F8513061
:104C3000002384F85030032002B0BDE8F081019BCE
:104C4000002B019B08BF0025013BBBE70C000020A7
:104C500010B513464268B2F5827F04460BD18268D4
:104C6000B2F5004F02D0B2F5806F04D1206802681F
:104C700022F0400202606268B2F5827F0BD1A26826
:104C8000B2F5806F0A4607D080212046FFF788FFE3
:104C900020B9002010BD0A460121F6E7636D43F0FC
:104CA000200363650320F5E773B51346124A134EDC
:104CB00015684268B5FBF6F64FF47A757543B2F5A0
:104CC000827F044601950BD10A468021FFF768FFD9
:104CD00078B1636D43F020036365032002B070BDBB
:104CE000019B33B1019B013B019323689B681B0629
:104CF000F6D40020F2E700BF0C00002000366E0161
:104D000010B50446002858D0436A002B51D14268A0
:104D1000B2F5827F00D0C3610023A36294F85130C2
:104D200003F0FF0223B984F850202046FEF704F870
:104D30002268022384F85130136823F04003136083
:104D4000D4E90023A16803F4827301F404410B4306
:104D5000E16801F400610B43216901F002010B439A
:104D6000616901F001010B43A16901F400710B437A
:104D7000E16901F038010B43216A01F080010B4326
:104D8000A16A01F400510B431360638B626A2168CE
:104D900002F0100203F0040313434B602268D3694E
:104DA00023F40063D36100200123606584F851304F
:104DB00010BD0023C0E90433AEE70120F8E72DE978
:104DC000F3411D4690F85030012B044688461746A3
:104DD00000F09880012380F8503000F025FD064651
:104DE00094F85100C0B2012840F08A80B8F1000F59
:104DF0005CD0002F5AD0032384F85130A368C4F844
:104E000030800020B3F5004F6065A786E786A06379
:104E1000A087E087C4E9100009D12268136823F055
:104E2000400313602268136843F4804313602368CF
:104E30001A6852065EBF1A6842F040021A60E268C1
:104E40006368B2F5006F3AD10BB1012F0AD1236824
:104E5000226B1288DA60236B02332363E38E013BFB
:104E60009BB2E386E38E9BB2A3B932462946204625
:104E7000FFF71AFF002840D1A36833B901932368D4
:104E8000DA6801929B680193019B606D003018BF46
:104E900001200BE023689A689007D9D400F0C4FC85
:104EA000801BA842DED3691CDCD00320012384F8D8
:104EB0005130002384F8503002B0BDE8F0810BB1CE
:104EC000012F0AD12368226B12781A73236B0133E6
:104ED0002363E38E013B9BB2E386E38E9BB2002B00
:104EE000C3D023689A689207EDD400F09DFC801B24
:104EF000A842F2D36B1CF0D0D7E720236365BBE751
:104F00000220D3E70220D7E72DE9F7431D4690F8AA
:104F100050300A9E012B04468846914600F0E980F5
:104F2000012380F8503000F07FFC94F85130DBB260
:104F3000012B07460BD06268B2F5827F40F0D78024
:104F4000A268002A40F0D380042B40F0D080B8F152
:104F5000000F00F0CA80B9F1000F00F0C680002DEC
:104F600000F0C38094F85130C4F83890042B1CBF73
:104F7000052384F851300023C4E9103363652368A6
:104F8000E587A587C4F83080E586A5861A685206AD
:104F90005EBF1A6842F040021A60E2686368B2F5C8
:104FA000006F5DD10BB1012D0AD1226B23681288ED
:104FB000DA60236B02332363E38E013B9BB2E3860B
:104FC0000125E38E9BB2ABB9E38F9BB293B93A460E
:104FD00031462046FFF768FE002840F08480A36831
:104FE000002B34D123680190DA6801929B68019309
:104FF000019B2CE02268936898070ED5E38E9BB244
:105000005BB155B1236B1B88D360236B02332363E1
:10501000E38E013B9BB2E386002522689368D907A3
:105020000DD5E38F9BB253B1A36BD2681A80A36BEB
:105030000233A363E38F013B9BB2E387012500F0BA
:10504000F3FBC01B8642BCD8731CBAD003200123DB
:1050500084F85130002384F8503003B0BDE8F08369
:105060000BB1012D0AD1226B236812781A73236BBE
:1050700001332363E38E013B9BB2E3860125E38E7C
:105080009BB21BB9E38F9BB2002BA0D02268936820
:1050900098070ED5E38E9BB25BB155B1236B1B789D
:1050A0001373236B01332363E38E013B9BB2E386CF
:1050B000002522689368D9070DD5E38F9BB253B1C1
:1050C000A36BD2681A70A36B0133A363E38F013B18
:1050D0009BB2E387012500F0A7FBC01B8642CED818
:1050E000731CCCD0B2E7202363650120AFE7022018
:1050F000ADE70220B1E72DE9F3411D464368B3F562
:10510000827F0446884617460CD1836853B904232E
:1051100080F85130134600950A46FFF7F5FE02B0BD
:10512000BDE8F08194F85030012B00F0818001231C
:1051300084F8503000F078FB064694F85100C0B275
:10514000012873D1B8F1000F5ED0002F5CD004238A
:1051500084F85130002363652363E787A386E386E1
:10516000C4E91033A368C4F83880B3F5004FA787AB
:1051700009D12268136823F0400313602268136882
:1051800023F48043136023681A6857065EBF1A68C9
:1051900042F040021A60E368FBB1E38F9BB203B3B5
:1051A00023689A68D20736D5DA68A36B1A80A36B96
:1051B0000233A363E38F013B9BB2E387EDE72368F0
:1051C0009A68D00718D5A26B1B7B1370A36B0133B1
:1051D000A363E38F013B9BB2E387E38F9BB2002B7A
:1051E000EDD1324629462046FFF732FDD8B9606D31
:1051F000003018BF012007E000F016FB801BA8421A
:10520000EBD3691CE9D00320012384F8513000233B
:1052100084F8503083E700F007FB801BA842BCD322
:105220006B1CBAD0EFE720236365E0E70220EBE7D1
:10523000022074E710B5044640B390F8393003F00B
:10524000FF021BB980F83820FDF71CFC226861685A
:10525000022384F83930136823F440330B4313607E
:105260002268A168536B23F007030B435363226842
:10527000E168136C23F47F5323F03F030B43136463
:1052800000200123E06384F8393010BD0120FCE7E1
:105290007047704770B503685E681D68F207044682
:1052A00015D5E90513D51A6822F480721A60C36B0C
:1052B00043F00103C363036801229A60042380F86A
:1052C0003930002380F83830436903B19847B2067B
:1052D00017D5AB0415D52268136823F40053136067
:1052E000236820229A60E36B43F00203E363042304
:1052F00084F83930002384F8383063690BB12046D4
:105300009847300717D5290515D52268136823F467
:1053100000631360236808229A60E36B43F0040380
:10532000E363042384F83930002384F83830636958
:105330000BB12046984772070CD56B050AD5226839
:10534000136823F480631360236804229A60204664
:10535000FFF79EFFB00715D5A90513D5226813687E
:1053600023F400731360236802229A60E36BE36303
:10537000012384F83930002384F8383023690BB1D5
:1053800020469847F20614D5EB0412D5226813681C
:1053900023F480531360236810229A60E36BE36365
:1053A000012384F83930002384F838302046FFF791
:1053B00070FF70BD70B590F83830012B4FF00203CC
:1053C0002CD0012280F838200A0180F83930841866
:1053D000D4E9075345EA0343093D012D656A194E97
:1053E0009ABF05F07F452B4343EA05630568B9B9C9
:1053F000696A31400B436B62036882699A61C369D1
:10540000093B012B04D8436A026823F07F4393626F
:10541000012380F83930002380F83830184670BDF9
:10542000E96931400B43EB61831801689A690A61AD
:10543000DB69093B012B9FBF636A026823F07F434E
:105440001362E5E7F0FFFC00F0B505684C68EB6817
:10545000D20184321544C3F30B431C446B6803F43C
:1054600070436B6005680E68EB680136C3F30B434D
:105470001544334443EA04436B600568CC68EB6829
:10548000C3F30A031C44AB189D6805F470459D6086
:1054900005688B68EE680133C6F30A061544334489
:1054A00043EA0443AB600368134400251C6924F0FD
:1054B00007041C6103680C6913441C61046891F8BB
:1054C000326091F83170D1F818C01444A369A56115
:1054D000046891F8303043EA0C63144443EA07232C
:1054E00043EA0643A361036813445C6924F0FF04A4
:1054F0005C6103684C6913445C6104681444E369AB
:1055000023F4E06323F00703E3610368D1E907466E
:1055100013443443DC61036813449C6A9D6203684E
:105520004C6A13449C620B6963B3012B2CD09C1E04
:10553000022C2BD9072B14BF012402240368134427
:10554000DD6A05F0E025DD6203689D18D1E900639E
:105550009B1B8E6A63430333744343EA0443EB6249
:1055600004681444236B23F4FF6323F007032363CD
:105570000368C96A1344196301688B5843F0010337
:105580008B50F0BD0424D9E70324D7E70224D5E7E4
:1055900038B50446002870D090F8A13003F0FF021F
:1055A0001BB980F8A020FDF7EBFA2268022384F8EB
:1055B000A130936923F070439361D4E90130034330
:1055C000E068226803432069916903430B439361B8
:1055D00021682B4A8B6813408B60216860698B6857
:1055E00043EA0043A06903438B602168CB68134002
:1055F000CB602168E069CB6843EA0043206A03433B
:10560000CB6021680B6913400B6121680B69606AEC
:1056100043EA0043A06A03430B6121684B691A40C7
:105620004A612268E16A536943EA0143216B0B43F3
:105630005361216894F83600CA6A94F8355002F034
:105640007F42CA62226894F83430D16A0B4343EA3D
:10565000052343EA0043D3622268536B43F00603F9
:1056600053632268936943F001039361002001238F
:10567000C4F8A40084F8A13038BD0120FCE700BFC5
:1056800000F800F07047704770B503689E6B5D6B63
:105690007207044615D5690713D55A6B22F0040228
:1056A0005A6303680422DA63D0F8A43043F001039C
:1056B000C0F8A430002380F8A12080F8A030FFF7C4
:1056C000E1FFB20717D5AB0715D52268536B23F05E
:1056D0000203536323680222DA63D4F8A43013432D
:1056E000C4F8A430042384F8A130002384F8A03047
:1056F0002046FFF7C7FFF00711D5E9070FD522684D
:10570000536B23F00103536322680123D36384F8AE
:10571000A130002384F8A0302046FBF7B7FF320702
:1057200012D52B0710D52268536B23F0080353635F
:1057300023680822DA63012384F8A130002384F867
:10574000A0302046FFF79FFF70BDF8B590F8A0305D
:10575000012B06468C4696464FF002001DD00127CD
:1057600086F8A07086F8A10034240D4604FB02647C
:105770000FCD38340FC40FCD0FC40FCD0FC42B681D
:105780002360304672466146FFF75EFE33680020B4
:105790005F6286F8A17086F8A000F8BD10B590F899
:1057A000A030012B4FF0020314D0046880F8A13020
:1057B000012280F8A020636B23F001036363064B92
:1057C000196401684B6B13434B63002380F8A120DD
:1057D00080F8A030184610BD0068014008B50B4B9A
:1057E0001A6842F400721A601A6842F480621A6001
:1057F0001A6842F480721A600320FEF703FD00204D
:10580000FCF7C8FCFDF706F9002008BD003C02408B
:10581000034A044B11681B780B441360704700BFA8
:105820007826012048000020014B1868704700BF0F
:105830007826012038B50446FFF7F6FF631C1CBF2D
:10584000054B1B78054618BFE418FFF7EDFF401B1A
:10585000A042FAD338BD00BF48000020F7B5036866
:1058600013F0430F044640F08C80236813F00C0FB4
:1058700045D08B4D8B4E00232B60FFF7D5FF07469D
:1058800033689B0000F1D08023685F0715D5D4E909
:105890000413D6F888201B0602F0E04243EA811385
:1058A0001343C6F88830D6F88C30226A23F4F853B4
:1058B000013A43EA0223C6F88C3023681E0714D548
:1058C000784AA369D2F8881020691B0701F070613B
:1058D00043EA80130B43C2F88830D2F88C30616AF7
:1058E00023F440330B43C2F88C3001232B60FFF7C5
:1058F0009BFF6C4D06462B68980040F19C80236806
:105900009A0634D500230193664B674D1A6C42F01A
:1059100080521A641B6C03F080530193019B2B6827
:1059200043F480732B60FFF77FFF06462B68D90591
:1059300040F188805B4D2B6F13F4407340F08980F9
:10594000A26A02F44073B3F5407F564B40F0A38047
:10595000996822F0704221F4F81122F440720A434F
:105960009A60A26A196FC2F30B020A431A67206891
:1059700010F010001FBF4D4B94F82C201A6000202F
:1059800050E04B4D474E00232B60FFF74DFF07467D
:1059900033681B0140D42368DF0741BFD4E90123EA
:1059A0001B0743EA8213C6F8843023689E0715D587
:1059B0003C4AE368D2F8841060681B0601F0E041BD
:1059C00043EA80130B43C2F88430D2F88C10E369A9
:1059D00021F01F01013B0B43C2F88C3023685806AD
:1059E0000AD5E36862681B0643EA8213A26843EAA9
:1059F00002732C4AC2F8843001232B60FFF714FF96
:105A0000284D06462B6819013FF52FAFFFF70CFF15
:105A1000801B0228F6D904E0FFF706FFC01B02280E
:105A2000B6D9032003B0F0BDFFF7FEFEC01B02286D
:105A30007FF626AFF5E7FFF7F7FE801B02287FF61B
:105A40005AAFEEE7FFF7F0FE801B02287FF66EAF3D
:105A5000E7E7A26A02F4407293423FF471AF2B6F02
:105A6000144A0121116023F44073002111602B6757
:105A70002B6FDA077FF564AFFFF7D6FE41F2883768
:105A800006462B6F9B073FF55BAFFFF7CDFE801BF4
:105A9000B842F6D9C5E79A6822F4F81260E700BF69
:105AA000700047420038024000700040E011474259
:105AB00068004742400E474210B5044650B1437952
:105AC00003F0FF0213B90271FCF7C4FF01236371F5
:105AD000002010BD0120FCE7704708B5FCF716F95F
